:020000040800F2
:10000000005000206D1800086D1400086F140008DF
:100010007114000873140008751400080000000033
:10002000000000000000000000000000771400083D
:1000300079140008000000007B1400087D140008FB
:10004000B5180008B5180008B5180008B51800085C
:10005000B5180008B5180008B5180008B51800084C
:10006000B5180008B5180008B5180008B51800083C
:10007000B5180008B5180008851400089514000884
:10008000B5180008B5180008B5180008B51800081C
:10009000B5180008B5180008B5180008B51800080C
:1000A000B5180008B5180008B5180008B5180008FC
:1000B000B5180008B5180008B5180008B5180008EC
:1000C000B5180008B5180008B5180008B5180008DC
:1000D000B5180008A5140008B5180008C9150008CF
:1000E000B5180008B5180008B51800080000000091
:1000F0000000000000000000000000000000000000
:0C01000000000000000000005FF808F1A3
:1001100070B54FF0FF0C4CF4E06C1CEA11541DBF9D
:100120001CEA135594EA0C0F95EA0C0F00F0DEF868
:100130002C4481EA030621EA4C5123EA4C5350EA4D
:10014000013518BF52EA033541F4801143F480139E
:1001500038D0A0FB02CE4FF00005E1FB02E506F02F
:100160000042E0FB03E54FF00006E1FB03569CF084
:10017000000F18BF4EF0010EA4F1FF04B6F5007F8A
:1001800064F5407404D25FEA4E0E6D4146EB0606FC
:1001900042EAC62141EA55514FEAC52040EA5E5085
:1001A0004FEACE2EB4F1FD0C88BFBCF5E06F1ED82F
:1001B000BEF1004F08BF5FEA500E50F1000041EB66
:1001C000045170BD06F0004646EA010140EA020013
:1001D00081EA0301B4EB5C04C2BFD4EB0C0541EA35
:1001E000045170BD41F480114FF0000E013C00F34A
:1001F000AB8014F1360FDEBF002001F0004170BD6E
:10020000C4F10004203C35DA0C341BDC04F1140486
:10021000C4F1200500FA05F320FA04F001FA05F212
:1002200040EA020001F0004221F0004110EBD370DF
:1002300021FA04F642EB06015EEA430E08BF20EA0B
:10024000D37070BDC4F10C04C4F1200500FA04F3AE
:1002500020FA05F001FA04F240EA020001F0004140
:1002600010EBD37041F100015EEA430E08BF20EAB3
:10027000D37070BDC4F1200500FA05F24EEA020EFB
:1002800020FA04F301FA05F243EA020321FA04F02A
:1002900001F0004121FA04F220EA020000EBD370E1
:1002A0005EEA430E08BF20EAD37070BD94F0000FE1
:1002B0000FD101F00046400041EB010111F4801F15
:1002C00008BF013CF7D041EA060195F0000F18BFC6
:1002D000704703F00046520043EB030313F4801F02
:1002E00008BF013DF7D043EA0603704794EA0C0FBC
:1002F0000CEA135518BF95EA0C0F0CD050EA4106D2
:1003000018BF52EA4306D1D181EA030101F000414E
:100310004FF0000070BD50EA410606BF1046194676
:1003200052EA430619D094EA0C0F02D150EA013682
:1003300013D195EA0C0F05D152EA03361CBF1046C3
:1003400019460AD181EA030101F0004141F0FE4162
:1003500041F470014FF0000070BD41F0FE4141F4E6
:10036000780170BD70B54FF0FF0C4CF4E06C1CEAE6
:1003700011541DBF1CEA135594EA0C0F95EA0C0F9B
:1003800000F0A7F8A4EB050481EA030E52EA033556
:100390004FEA013100F088804FEA03334FF0805577
:1003A00045EA131343EA12634FEA022245EA1115A4
:1003B00045EA10654FEA00260EF000419D4208BF55
:1003C000964244F1FD0404F5407402D25B084FEA02
:1003D0003202B61A65EB03055B084FEA32024FF4AE
:1003E00080104FF4002CB6EB020E75EB030E22BF0B
:1003F000B61A754640EA0C005B084FEA3202B6EBCB
:10040000020E75EB030E22BFB61A754640EA5C0079
:100410005B084FEA3202B6EB020E75EB030E22BF09
:10042000B61A754640EA9C005B084FEA3202B6EB0A
:10043000020E75EB030E22BFB61A754640EADC00C9
:1004400055EA060E18D04FEA051545EA16754FEA2B
:1004500006164FEAC30343EA52734FEAC2025FEA49
:100460001C1CC0D111F4801F0BD141EA00014FF0D8
:1004700000004FF0004CB6E711F4801F04BF0143A9
:100480000020B4F1FD0C88BFBCF5E06F3FF6AFAEC5
:10049000B5EB030C04BFB6EB020C5FEA500C50F155
:1004A000000041EB045170BD0EF0004E4EEA1131D8
:1004B00014EB5C04C2BFD4EB0C0541EA045170BDDF
:1004C00041F480114FF0000E013C90E645EA060E23
:1004D0008DE60CEA135594EA0C0F08BF95EA0C0F51
:1004E0003FF43BAF94EA0C0F0AD150EA01347FF499
:1004F00034AF95EA0C0F7FF425AF104619462CE770
:1005000095EA0C0F06D152EA03353FF4FDAE1046D2
:10051000194622E750EA410618BF52EA43067FF423
:10052000C5AE50EA41047FF40DAF52EA43057FF4B3
:10053000EBAE12E74FF0FF3C06E000BF4FF0010CBE
:1005400002E000BF4FF0010C4DF804CD4FEA410C22
:100550007FEA6C5C4FEA430C18BF7FEA6C5C1BD0EF
:1005600001B050EA410C0CBF52EA430C91EA030F70
:1005700002BF90EA020F0020704710F1000F91EACD
:10058000030F58BF994208BF90422CBFD8176FEA9B
:10059000E37040F0010070474FEA410C7FEA6C5C69
:1005A00002D150EA013C07D14FEA430C7FEA6C5C70
:1005B000D6D152EA033CD3D05DF8040B704700BF9C
:1005C0008446104662468C461946634600E000BFEA
:1005D00001B5FFF7B7FF002848BF10F1000F01BDBC
:1005E0004DF808EDFFF7F4FF0CBF012000205DF887
:1005F00008FB00BF4DF808EDFFF7EAFF34BF01200C
:1006000000205DF808FB00BF4DF808EDFFF7E0FFA4
:1006100094BF012000205DF808FB00BF4DF808EDF5
:10062000FFF7CEFF94BF012000205DF808FB00BF5C
:100630004DF808EDFFF7C4FF34BF012000205DF83E
:1006400008FB00BF4FEA410212F5001215D211D586
:100650006FF47873B3EB625212D94FEAC12343F0BF
:10066000004343EA505311F0004F23FA02F018BF41
:10067000404270474FF00000704750EA013005D10A
:1006800011F0004008BF6FF0004070474FF00000CD
:10069000704700BF844641EA000313F0030349D1C9
:1006A000403A23D30B6803604B6843608B688360D8
:1006B000CB68C3600B6903614B6943618B698361DC
:1006C000CB69C3610B6A03624B6A43628B6A8362C4
:1006D000CB6AC3620B6B03634B6B43638B6B8363AC
:1006E000CB6BC36340304031403ADBD230320BD366
:1006F0000B6803604B6843608B688360CB68C360A2
:1007000010301031103AF3D20C3205D351F8043BBB
:1007100040F8043B043AF9D2043208D0D2071CBF97
:1007200011F8013B00F8013B01D30B8803806046C0
:10073000704700BF082A13D38B07B1D010F0030312
:10074000AED0C3F10403D21ADB071CBF11F8013B82
:1007500000F8013BA4D331F8023B20F8023B9FE7AD
:10076000043AD9D3013A11F8013B00F8013BF9D220
:100770000B7803704B7843708B78837060467047BA
:1007800081F0004102E000BF83F0004330B54FEA42
:1007900041044FEA430594EA050F08BF90EA020FAF
:1007A0001FBF54EA000C55EA020C7FEA645C7FEA42
:1007B000655C00F0E2804FEA5454D4EB5555B8BF65
:1007C0006D420CDD2C4480EA020281EA030382EAD6
:1007D000000083EA010180EA020281EA0303362D68
:1007E00088BF30BD11F0004F4FEA01314FF4801C3B
:1007F0004CEA113102D0404261EB410113F0004F4D
:100800004FEA03334CEA133302D0524263EB430303
:1008100094EA050F00F0A780A4F10104D5F1200EA1
:100820000DDB02FA0EFC22FA05F2801841F10001FC
:1008300003FA0EF2801843FA05F359410EE0A5F1D0
:1008400020050EF1200E012A03FA0EFC28BF4CF001
:10085000020C43FA05F3C01851EBE37101F00045B7
:1008600007D54FF0000EDCF1000C7EEB00006EEBC4
:100870000101B1F5801F1BD3B1F5001F0CD349084E
:100880005FEA30004FEA3C0C04F101044FEA4452A5
:1008900012F5800F80F09A80BCF1004F08BF5FEA2C
:1008A000500C50F1000041EB045141EA050130BD0C
:1008B0005FEA4C0C404141EB0101013C28BFB1F51E
:1008C000801FE9D291F0000F04BF01460020B1FA69
:1008D00081F308BF2033A3F10B03B3F120020CDA3C
:1008E0000C3208DD02F1140CC2F10C0201FA0CF01A
:1008F00021FA02F10CE002F11402D8BFC2F1200C7F
:1009000001FA02F120FA0CFCDCBF41EA0C01904034
:10091000E41AA2BF01EB0451294330BD6FEA04047D
:100920001F3C1CDA0C340EDC04F11404C4F1200268
:1009300020FA04F001FA02F340EA030021FA04F37A
:1009400045EA030130BDC4F10C04C4F1200220FAD1
:1009500002F001FA04F340EA0300294630BD21FA0F
:1009600004F0294630BD94F0000F83F4801306BFD5
:1009700081F480110134013D4EE77FEA645C18BFC9
:100980007FEA655C29D094EA050F08BF90EA020F60
:1009900005D054EA000C04BF1946104630BD91EA58
:1009A000030F1EBF0021002030BD5FEA545C05D15B
:1009B0004000494128BF41F0004130BD14F580049A
:1009C0003CBF01F5801130BD01F0004545F0FE410E
:1009D00041F470014FF0000030BD7FEA645C1ABF43
:1009E000194610467FEA655C1CBF0B46024650EA7A
:1009F000013406BF52EA033591EA030F41F40021A6
:100A000030BD00BF90F0000F04BF0021704730B52B
:100A10004FF4806404F132044FF000054FF0000100
:100A200050E700BF90F0000F04BF0021704730B5C1
:100A30004FF4806404F1320410F0004548BF404296
:100A40004FF000013EE700BF42004FEAE2014FEAEB
:100A500031014FEA02701FBF12F07F4393F07F4FC6
:100A600081F06051704732F07F4208BF704793F0C9
:100A70007F4F04BF41F40021704730B54FF46074DC
:100A800001F0004521F000411CE700BF50EA0102DF
:100A900008BF704730B54FF000050AE050EA010288
:100AA00008BF704730B511F0004502D5404261EBF8
:100AB00041014FF4806404F132045FEA915C3FF439
:100AC000D8AE4FF003025FEADC0C18BF03325FEAD6
:100AD000DC0C18BF033202EBDC02C2F1200300FA87
:100AE00003FC20FA02F001FA03FE40EA0E0021FAAC
:100AF00002F11444BDE600BF4FEA410C7FEA6C5C92
:100B000002D150EA013C0AD14FEA430C7FEA6C5C07
:100B100002D152EA033C02D14FF0000070474FF07F
:100B2000010070474A0011D212F5001211D20DD502
:100B30006FF47873B3EB62520ED44FEAC12343F0E3
:100B4000004343EA505323FA02F070474FF000008D
:100B5000704750EA013002D14FF0FF3070474FF03C
:100B6000000070470348044B834202D0034B03B19B
:100B700018477047C0060020C00600200000000093
:100B80000548064B1B1AD90F01EBA301491002D0EF
:100B9000034B03B118477047C0060020C006002071
:100BA0000000000010B5064C237843B9FFF7DAFFC8
:100BB000044B13B10448AFF300800123237010BD30
:100BC000C00600200000000020D4000808B5054B36
:100BD0001BB105490548AFF30080BDE80840FFF7A9
:100BE000CFBF00BF00000000C406002020D40008D2
:100BF000002303B1704701339BB2FAE770B5054695
:100C0000204C01224FF48041204601F0C3F901221B
:100C10004FF40041204601F0BDF900224FF400419D
:100C2000204601F0B7F9002419E000224FF40051EA
:100C3000144801F0AFF9FFF7DBFF124E00224FF42A
:100C40008041304601F0A6F9FFF7D2FF01224FF4B0
:100C50008041304601F09EF96D000134E4B20F2C62
:100C600009D815F4004FE0D001224FF40051054897
:100C700001F090F9DFE701224FF40041014801F053
:100C800089F970BD000C014038B5054600224FF4CB
:100C90008051184801F07EF945F48855002410E091
:100CA00000224FF40051134801F074F96D00012245
:100CB0004FF480410F4801F06DF9FFF799FF0134BF
:100CC000E4B20F2C0FD800224FF48041094801F004
:100CD00061F915F4004FE3D001224FF400510548AB
:100CE00001F058F9E2E701224FF48051014801F088
:100CF00051F938BD000C01402DE9F04116461D4662
:100D000027A3D3E90023FFF72DFB27A3D3E9002373
:100D1000FFF7FEF9FFF796FCC0F30D08C0F38D3422
:100D2000069840F440474FF48070FFF767FF4FF498
:100D30000450FFF763FF46B1012E14D005B3022D16
:100D400023D0012D26D0BDE8F08148F4804844F43A
:100D500080444046FFF752FF2046FFF74FFF3846DA
:100D6000FFF74CFFE8E744F4004448F40040FFF785
:100D700045FF2046FFF742FF3846FFF73FFFDDE71C
:100D800042F20200FFF73AFFD9E742F22800FFF7EC
:100D900035FFD6E74FF40050FFF730FFD3E700BF31
:100DA0000000000080842E4100000040E17A644190
:100DB00000B583B00E4B5A6942F001025A615B697B
:100DC00003F001030193019B002211460E2000F065
:100DD0000BFE0E2000F018FE002211460F2000F03E
:100DE00003FE0F2000F010FE03B05DF804FB00BF0F
:100DF000001002402DE9F04389B0002404940594CA
:100E000006940794334B9A6942F010029A619A69EA
:100E100002F010020092009A9A6942F020029A6150
:100E20009A6902F020020192019A9A6942F0040242
:100E30009A619A6902F004020292029A9A6942F057
:100E400008029A619B6903F008030393039BDFF890
:100E5000889022464FF40051484601F09BF8DFF895
:100E60007C8001221146404601F094F8224606217A
:100E7000404601F08FF81A4D012241F20101284647
:100E800001F088F822464FF46041284601F082F8CC
:100E90004FF4005304930127059706940226079602
:100EA00004A9484600F068FF0723049305970694B9
:100EB000079604A9404600F05FFF4FF20103049338
:100EC00005970694079604A9284600F055FF09B037
:100ED000BDE8F0830010024000100140000801400E
:100EE000000C014008B50B480B4B03600B4B4360F3
:100EF00000238360C3604FF48042026143618361D9
:100F0000C361036201F0FAF900B908BD00F0D4F83A
:100F1000FBE700BFDC06002000540040801A0600FA
:100F200010B586B0002302930393049305930268DF
:100F3000154B9A4201D006B010BD144CA36943F082
:100F40000803A361A36903F008030093009B4FF417
:100F500040730293122303930323059302A90C48C1
:100F600000F00AFF0B4A536843F0E06343F00203CA
:100F70005360E36943F40013E361E36903F400138E
:100F80000193019BD7E700BF0054004000100240CE
:100F9000000C01400000014000B583B001904FF605
:100FA000FF73012201A9034801F086FF019803B0F5
:100FB0005DF804FB24080020F0B589B004460D4616
:100FC00016461F4600F0B6F90123314A00210846B3
:100FD00000F0B6F9012C0AD0022C49D0002C40D0E8
:100FE00001232C4A1946002000F0AAF905E001234C
:100FF000294A1946002000F0A3F92B46274A14215C
:1010000003A803F097FC012303AA0221002000F0AB
:1010100097F90022224B30463946FFF7FFFA70B3AA
:1010200000221F4B30463946FFF79CF9CDE90001FD
:101030001C4A142103A803F07DFC012303AA032109
:10104000002000F07DF90E9B174A142103A803F03D
:1010500071FC012303AA0421002000F071F909B0FA
:10106000F0BD0123114A1946002000F069F9C4E7D8
:1010700001230F4A1946002000F062F9BDE7CDE9CF
:1010800000670C4A142103A803F054FCD5E700BF05
:1010900038D4000878D4000848D400088CD400085C
:1010A00000408F4098D40008B8D4000858D40008F5
:1010B00068D40008A8D4000808B572B60421044812
:1010C00000F06EFF4FF47A7000F034FCF6E700BFDA
:1010D0000008014000B591B02822002106A803F0C5
:1010E000B3FC00230193029303930493059302231B
:1010F000069301230A9310230B9306A801F0A4FA88
:1011000068B90F2301930021029103910491059185
:1011100001A801F0CBFC20B911B05DF804FBFFF78A
:10112000CBFFFFF7C9FF000000B583B000F0EAFB7A
:10113000FFF7D0FFFFF75EFEFFF73AFEFFF7D2FEA4
:1011400000F0AAFA00F0C2FA00F06AF800F0F2F833
:10115000002400940123224600201449FFF7CCFD0F
:101160002046FFF791FD12480268D36843F0100350
:10117000D36064220F4902F0E9F901230E4A2146A7
:10118000204600F0DDF801230C4A1946204600F005
:10119000D7F80B4803F0C6FB4FF40051094800F0A4
:1011A000FFFE4FF4FA7000F0C5FBF2E700408F40FD
:1011B0006C0800203407002038D40008C8D4000888
:1011C000DCD400080010014000B587B08DF817008E
:1011D00064230293012301930DF117020092002270
:1011E0007821034801F068F907B05DF804FB00BFFF
:1011F000DC06002000B587B08DF817006423029349
:10120000012301930DF11702009240227821034837
:1012100001F052F907B05DF804FB00BFDC060020C6
:1012200008B5642000F086FBAE20FFF7CDFF20203C
:10123000FFF7CAFF1020FFF7C7FFB020FFF7C4FF7A
:10124000C820FFF7C1FF0020FFF7BEFF1020FFF707
:10125000BBFF4020FFF7B8FF8120FFF7B5FFFF205D
:10126000FFF7B2FFA120FFF7AFFFA620FFF7ACFF0B
:10127000A820FFF7A9FF3F20FFF7A6FFA420FFF754
:10128000A3FFD320FFF7A0FF0020FFF79DFFD5208D
:10129000FFF79AFFF020FFF797FFD920FFF794FFA1
:1012A0002220FFF791FFDA20FFF78EFF1220FFF7D1
:1012B0008BFFDB20FFF788FF2020FFF785FF8D20C5
:1012C000FFF782FF1420FFF77FFFAF20FFF77CFFBF
:1012D00008BD10B50446A1F15000C0B2FFF774FF7D
:1012E000200940F01000FFF76FFF04F00E0040F0FF
:1012F0000100FFF769FF10BD70B50546002609E043
:101300002846FFF777FF0134E4B214F0800FF7D0DE
:101310000136F6B2072E0CD8A6F15000C0B2FFF786
:1013200053FF0020FFF750FF1020FFF74DFF002470
:10133000EBE770BD08B50020FFF7DEFF08BD000039
:101340002DE9F84306460F469046012B26D0022B86
:101350005AD0BDE8F88305EB45022D4B03EB420361
:10136000185DFFF747FF0134E4B2052CF3D90636C8
:10137000F6B209F101095FFA89F918F80950002D50
:10138000E7D0203DEDB27E2E02D90137FFB2002614
:1013900039463046FFF79DFF0024E6E74FF000098D
:1013A000EBE704EB05131B4AD05CFFF723FF013486
:1013B000E4B2072CF5D9791CC9B23046FFF789FF92
:1013C000002408E004EB05130833124AD05CFFF751
:1013D00011FF0134E4B2072CF4D90836F6B209F152
:1013E00001095FFA89F918F80950002DB1D0203DA4
:1013F000EDB2782E02D90137FFB2002639463046C9
:10140000FFF767FF0024D4E74FF00009EBE700BFC8
:1014100020DD000830D7000882B00E4B9A6942F0F8
:1014200001029A619A6902F001020092009ADA6957
:1014300042F08052DA61DB6903F080530193019B33
:10144000054A536823F0E06343F00073536002B031
:10145000704700BF0010024000000140024A1368BC
:1014600001331360704700BFB4080020FEE7FEE7B9
:10147000FEE7FEE7FEE770477047704708B5FFF7E5
:10148000EDFF08BD08B5024800F0D4FB08BD00BF61
:101490009C07002008B5024800F0CCFB08BD00BF47
:1014A000E00700202DE9F04188B0414C204601F0D2
:1014B0005DFE23681A6812F0100F02D108B0BDE873
:1014C000F0816FF010021A60204601F054FD394B94
:1014D0001B685B68C3F16403374C23603749002203
:1014E000CA54374803F0BEF92168364803F0BAF908
:1014F00023680F2B05D8642230492D4802F026F8C6
:10150000DCE72E4C0322214602A803F033FB002522
:101510008DF80B5094F803800722211D06A803F0D4
:1015200029FB8DF81F50042204F10B0104A803F0DD
:1015300021FB8DF81450032204F10F0103A803F0DE
:1015400019FB8DF80F5006A802F014F806460F4656
:1015500004A802F013F8044603A802F00FF80546A9
:10156000B8F1300F08D0B8F1310F1AD0B8F1320FFE
:101570001AD04FF0010801E04FF0010800954346F2
:10158000002230463946FFF7B7FBE4B22046FFF7AA
:101590007BFB009532463B4621464046FFF70CFD5B
:1015A000A9E74FF00008E9E74FF00208E6E700BFBF
:1015B0006C080020E00700203007002034070020DE
:1015C000F4D4000804D5000808B5024801F0CEFDA7
:1015D00008BD00BF240800200120704708B503F0B3
:1015E00059FB162303604FF0FF3008BD08B54FF0DC
:1015F000FF31FFF7F3FFFEE770B50C4616460025F6
:1016000006E0AFF30080214601F8010B01350C46DE
:10161000B542F6DB304670BD70B50C461646002567
:1016200004E014F8010BFFF7B7FC0135B542F8DB15
:10163000304670BD4FF0FF3070474FF400534B60A1
:1016400000207047012070470020704710B5034606
:101650000C4A0D490D48006840B10C48006803442D
:10166000521A934206D8094A136010BD0748084C25
:101670000460F2E703F00EFB0C2303604FF0FF3031
:10168000F3E700BF0050002000040000980700208E
:10169000D00B00207047000008B50A480A4B0360D1
:1016A0004FF41653436000238360C36003610C2230
:1016B00042618361C36101F0CFFB00B908BDFFF750
:1016C000FBFCFBE76C0800200038014008B50A4825
:1016D0000A4B03604FF4E133436000238360C3602F
:1016E00003610C2242618361C36101F0B5FB00B963
:1016F00008BDFFF7E1FCFBE724080020004800409C
:1017000070B588B00023049305930693079303688C
:101710004D4A934204D04D4A934263D008B070BD05
:1017200004464B4B9A6942F480429A619A6902F4EA
:1017300080420092009A9A6942F004029A619B6981
:1017400003F004030193019B4FF4007304930223FD
:101750000593032307933F4E04A9304600F00CFB8A
:101760004FF48063049300250595069504A930463F
:1017700000F002FB3848394B0360456085608023E8
:10178000C36005614561202383614FF48053C361C9
:1017900000F072F900BB304BE3635C623048314BC0
:1017A000036010234360002383608022C2600361D2
:1017B000436183614FF48053C36100F05DF970B9F8
:1017C000274BA3635C6200221146252000F00CF930
:1017D000252000F019F9A1E7FFF76EFCDBE7FFF722
:1017E0006BFCEDE71A4BDA6942F48022DA61DA69C0
:1017F00002F480220292029A9A6942F008029A61E7
:101800009B6903F008030393039B4FF480630493E5
:101810000225059503230793134E04A9304600F0D3
:10182000ABFA4FF40063049300240594069404A9D2
:10183000304600F0A1FA22462946272000F0D4F8CD
:10184000272000F0E1F869E7003801400048004037
:101850000010024000080140E0070020580002404C
:101860009C07002044000240000C0140FFF712FFDB
:101870000B480C490C4A002302E0D458C4500433EE
:10188000C4188C42F9D3094A094C002301E01360C3
:101890000432A242FBD303F003FAFFF745FC704782
:1018A00000000020C00600203CE30008C006002025
:1018B000CC0B0020FEE7000010B504460E4B1A7852
:1018C0004FF47A73B3FBF2F30C4A1068B0FBF3F0F9
:1018D00000F0A8F868B90F2C01D901200AE0002215
:1018E00021464FF0FF3000F07FF8054B1C600020D0
:1018F00000E0012010BD00BF040000200000002017
:101900000800002008B5074A136843F0100313606D
:10191000032000F057F80020FFF7CEFFFFF77CFD13
:10192000002008BD00200240014B1868704700BF2E
:10193000B408002038B50446FFF7F6FF0546B4F1B9
:10194000FF3F02D0044B1B781C44FFF7EDFF401B08
:10195000A042FAD338BD00BF04000020002808DBF5
:101960000901C9B200F1604000F5614080F8001340
:10197000704700F00F000901C9B2014B19547047BC
:1019800014ED00E000B500F00700C0F1070CBCF159
:10199000040F28BF4FF0040C031D062B0FD9C31EE4
:1019A0004FF0FF3E0EFA0CF021EA000199400EFACA
:1019B00003FE22EA0E0241EA02005DF804FB002366
:1019C000EEE70000074AD36823F4E0631B041B0C16
:1019D000000200F4E060034343F0BF6343F40033CC
:1019E000D360704700ED00E010B50446054BD868A1
:1019F000C0F30220FFF7C6FF01462046FFF7AEFF07
:101A000010BD00BF00ED00E0002807DB00F01F0262
:101A1000400901239340024A42F82030704700BF3A
:101A200000E100E00138B0F1807F0BD24FF0E023FD
:101A30005861054AF02182F823100020986107229E
:101A40001A6170470120704700ED00E030B40124B6
:101A5000056CAC40C56B6C60046863604368102B18
:101A600005D0036899600368DA6030BC704703688A
:101A70009A600368D960F8E750B310B40246016871
:101A8000144B0B441448A0FB03031B099B00136475
:101A9000124BD363022382F8213008686FF30D10D4
:101AA000536894682343D4682343146923435469D7
:101AB000234394692343D469234303430B600020E9
:101AC0009063012382F8213082F8200010BC704717
:101AD00001207047F8FFFDBFCDCCCCCC0000024008
:101AE00038B5044690F82000012832D0012084F84F
:101AF000200094F82100C0B2012804D0002384F80B
:101B00002030022038BD022084F821000020A0638C
:101B10002568286820F0010028602046FFF796FF1E
:101B2000E36A5BB12268136843F00E031360226816
:101B3000136843F0010313600020E3E72268136891
:101B400023F0040313602268136843F00A03136050
:101B5000EDE70220D6E7034690F82120D2B2022A10
:101B600006D004228263002280F8202001207047E2
:101B700001680A6822F00E020A6001680A6822F011
:101B800001020A60026CC06B012101FA02F242609C
:101B900083F82110002083F82000704708B590F8E2
:101BA0002130DBB2022B03D004238363012008BD64
:101BB0000268136823F00E0313600268136823F0B1
:101BC000010313600368194A934214D014329342FC
:101BD0001FD0143293421ED0143293421ED01432BE
:101BE00093421ED01432934202D04FF0807203E031
:101BF0004FF4801200E001220D4B5A60012380F85F
:101C00002130002380F82030436B6BB198470020CF
:101C1000CDE71022F0E74FF48072EDE74FF48052E9
:101C2000EAE74FF48032E7E70020C0E7080002400F
:101C30000000024038B5C36B1A6804682568016C5F
:101C400004238B40134235D015F0040F32D02368A3
:101C500013F0200F03D1236823F0040323600368EB
:101C6000434A934214D01432934218D01432934210
:101C700017D01432934217D01432934217D0143233
:101C8000934202D04FF0806203E04FF4800200E004
:101C90000422384B5A60C36A03B1984738BD4022CA
:101CA000F7E74FF48062F4E74FF48042F1E74FF436
:101CB0008022EEE702238B4013423CD015F0020F46
:101CC00039D0236813F0200F06D1236823F00A03CC
:101CD0002360012380F821300368254A934214D001
:101CE000143293421CD0143293421BD014329342CC
:101CF0001BD0143293421BD01432934202D04FF0C7
:101D0000007203E04FF4001200E00222194B5A6007
:101D1000002380F82030836A002BBFD09847BDE7AE
:101D20002022F3E74FF40072F0E74FF40052EDE7A2
:101D30004FF40032EAE708238B401342AED015F08F
:101D4000080FABD0236823F00E032360026CC16B35
:101D5000012303FA02F24A60836380F821300023F2
:101D600080F82030036B002B98D0984796E700BF8F
:101D7000080002400000024070B582B00024A44672
:101D8000A1E07E4DAB4214D00CD8A5F58015AB4236
:101D90000FD005F57025AB420BD0A5F58015AB42F1
:101DA00010D106E0764DAB4203D005F58035AB424D
:101DB00008D18B68002B50D0012B49D042610824F8
:101DC00000E0CC68BEF1FF0F49D806464FEA8C020E
:101DD00033680F25954023EA050304FA02F2134302
:101DE00033604B6813F0805F6BD0664B9A6942F0AA
:101DF00001029A619B6903F001030193019B4FEA81
:101E00009C02951C604B53F825600CF00305AD0057
:101E10000F23AB4026EA03065C4B984226D003F51D
:101E20008063984200F08C8003F58063984200F054
:101E3000898003F58063984216D0042317E0CC68AC
:101E40000434BFE7CC680834BCE7CC680C34B9E78D
:101E500002610824B6E70024B4E70424B2E7061DB3
:101E6000ACF108029200B3E7032300E00023AB408B
:101E700033430232444D45F822304B6813F4801F3F
:101E800062D0434A936843EA0E0393604B6813F4AD
:101E9000001F5FD03E4AD36843EA0E03D3604B680D
:101EA00013F4003F5CD03A4A536843EA0E03536090
:101EB0004B6813F4803F59D0354A136843EA0E0348
:101EC00013600CF1010C0B6833FA0CF254D00122B0
:101ED00002FA0CF203EA020E32EA0303F1D14B6874
:101EE000122B3FF64EAF122B3FF66CAF01A555F803
:101EF00023F000BFB31D0008C31D0008451E0008E5
:101F0000571E0008C51D0008C51D0008C51D000896
:101F1000C51D0008C51D0008C51D0008C51D000819
:101F2000C51D0008C51D0008C51D0008C51D000809
:101F3000C51D0008C51D00083F1E00084B1E0008F7
:101F4000012394E7022392E7114A936823EA0E03E0
:101F500093609BE70E4AD36823EA0E03D3609EE7A3
:101F60000B4A536823EA0E035360A1E7084A13683B
:101F700023EA0E031360A4E702B070BD0000221034
:101F80000000311000100240000001400008014034
:101F9000000401400AB10161704709040161704702
:101FA000C36801EA030221EA030141EA0241016137
:101FB000704703685A6912F4806F01D1002070479E
:101FC0006FF480625A6100230363202280F83D2071
:101FD00080F83E30026C42F00402026480F83C302B
:101FE000012070472DE9F04106460C4617469846F9
:101FF0003BE0FFF799FC069BC01A404502D8B8F1B8
:10200000000F32D1012D18D033689B6924EA0303F5
:102010009BB2B3FA83F35B099F4226D1002333635B
:10202000202286F83D2086F83E30326C42F02002B5
:10203000326486F83C30012027E033685B6924EA8B
:1020400003039BB2B3FA83F35B09E5E733685B698B
:1020500024EA030C1FFA8CFCBCFA8CFC4FEA5C1CD3
:10206000674511D1B8F1FF3FC3D1C4F30745012D36
:10207000ECD033689B6924EA030C1FFA8CFCBCFA91
:102080008CFC4FEA5C1CEBE70020BDE8F0812DE9F9
:10209000F84305460E469046994653E01A6842F4C6
:1020A00000721A602B686FF480625A6100232B6300
:1020B000202285F83D2085F83E302A6C42F004024B
:1020C0002A6485F83C3001204AE0FFF72DFCA0EBA4
:1020D0000900404502D8B8F1000F33D1012F17D0C5
:1020E0002B689B6926EA03039BB2003B18BF0123C0
:1020F00043B300232B63202285F83D2085F83E3032
:102100002A6C42F020022A6485F83C30012027E046
:102110002B685B6926EA03039BB2003B18BF0123CF
:10212000E6E72B689C6926EA0404A4B2003C18BFC9
:102130000124A4B12B685A6912F4806FAED1B8F1B2
:10214000FF3FC2D1C6F30747012FEAD12B685C6974
:1021500026EA0404A4B2003C18BF0124E9E70020E9
:10216000BDE8F88370B504460D46164623685B69E2
:1021700013F0800F21D12046FFF71BFFF8B9B5F10E
:10218000FF3FF3D0FFF7D0FB801BA84201D8002D02
:10219000ECD123685B6913F0800FE7D10023236340
:1021A000202284F83D2084F83E30226C42F0200248
:1021B000226484F83C30012000E0002070BD012042
:1021C000FCE700002DE9F04385B004460D4691463A
:1021D0001F46DDF830800D9E0368196841F4807158
:1021E00019600096434600224FF00111FFF7FAFEF6
:1021F00060B9236805F0FE051D6133464246264955
:102200002046FFF744FF68B1012008E023681B68FF
:1022100013F4807F02D04FF400732364032005B0D1
:10222000BDE8F0830023039323685A6903929B69F6
:102230000393039B324641462046FFF793FF30B994
:10224000012F0FD123685FFA89F61E61E7E7236C3F
:10225000042B01D00120E2E72268136843F40073E5
:102260001360F7E723684FEA19221A6132464146A4
:102270002046FFF777FF20B923685FFA89F61E61D1
:10228000CDE7236C042B01D00120C8E72268136836
:1022900043F400731360F7E70200010070B50446D1
:1022A0000D46164623685B6913F0040F21D12046C2
:1022B000FFF77FFEF8B9B5F1FF3FF3D0FFF734FB2E
:1022C000801BA84201D8002DECD123685B6913F074
:1022D000040FE7D100232363202284F83D2084F8F3
:1022E0003E30226C42F02002226484F83C3001200F
:1022F00000E0002070BD0120FCE70000002800F095
:10230000CC8070B5044690F83D30002B77D0242364
:1023100084F83D302268136823F0010313602268BB
:10232000136843F4004313602268136823F40043E6
:10233000136000F077FC62685A4B9A4264D85A4B9B
:1023400098428CBF00230123002B40F0A8805749FE
:10235000A1FB00318B0C25686A6822F03F0242EA3B
:1023600091426A6021680A6A22F03F0266684D4D18
:10237000AE424FD8013313430B622168CA6922F47D
:102380004F4222F0FF026568464B9D424CD8431EE7
:102390006D00B3FBF5F3013340F6FC70034278D0D7
:1023A000C3F30B031A43CA6121680B6823F0C0030F
:1023B000E269206A024313430B6021688B6823F4AF
:1023C000034323F0FF032269E068024313438B6059
:1023D0002168CB6823F0FF036269A06902431343BD
:1023E000CB602268136843F001031360002020646F
:1023F000202384F83D30206384F83E0070BD80F8CF
:102400003C30FEF78DFD82E7294B98428CBF0023BC
:10241000012399E74FF4967505FB03F3254DA5FBC2
:1024200003539B090133A6E7A668BEB9431E05EB1B
:10243000450CB3FBFCF30133C3F30B03B3FA83F393
:102440005B0943BBC6B9431E05EB4505B3FBF5F37A
:102450000133C3F30B0343F40043A3E7431E05EB2F
:10246000850C0CEB8C0CB3FBFCF30133C3F30B03B7
:10247000B3FA83F35B09E4E7431E05EB850505EB3F
:102480008505B3FBF5F30133C3F30B0343F440437A
:1024900088E7042386E7012384E7012070470120B1
:1024A000ACE700BFA08601007F841E0083DE1B43D3
:1024B000FF083D00D34D62102DE9F04383B0044680
:1024C0000F46904699460C9EFFF72EFA054694F863
:1024D0003D00C0B2202803D0022003B0BDE8F08345
:1024E0000095192301224B492046FFF77BFD002868
:1024F00040F0898094F83C30012B00F08680012365
:1025000084F83C3023681A6812F0010F03D11A686E
:1025100042F001021A602268136823F4006313601A
:10252000212384F83D30402384F83E300023236487
:102530000A9B6362BDF82C306385638D2385364B1F
:10254000E362019500964B46424639462046FFF726
:1025500039FE00285BD1238D002B35D02A46314629
:102560002046FFF7FFFD20BB626A236812781A61DC
:10257000626A531C6362218D013989B22185638DA2
:102580009BB2013B9BB263852368586910F0040F2E
:10259000E1D00029DFD052781A61636A01336362A7
:1025A000238D013B2385638D9BB2013B9BB26385E9
:1025B000D1E7236C042B01D001208EE72268136839
:1025C00043F400731360F7E72A4631462046FFF7CD
:1025D00065FE50B1236C042B01D001207DE72268F9
:1025E000136843F400731360F7E72268136843F439
:1025F00000731360202384F83D30002384F83E30BC
:1026000084F83C3069E7022067E7022065E7012093
:1026100063E700BF020010000000FFFF82B0084B1C
:102620001B68084AA2FB03235B0A00FB03F3019328
:1026300000BF019B5A1E0192002BF9D102B07047D6
:1026400000000020D34D6210002800F0F18170B529
:1026500082B00446036813F0010F2CD0994B5B68DD
:1026600003F00C03042B1DD0964B5B6803F00C03A6
:10267000082B12D06368B3F5803F41D0002B55D1B1
:1026800003F1804303F504331A6822F480321A60A0
:102690001A6822F480221A6037E08A4B5B6813F4D0
:1026A000803FE7D0874B1B6813F4003F03D063687B
:1026B000002B00F0BF81236813F0020F75D0814B0F
:1026C0005B6813F00C0F5FD07E4B5B6803F00C036C
:1026D000082B54D02369002B00F08A807A4B01220A
:1026E0001A60FFF721F90546764B1B6813F0020FBD
:1026F00075D1FFF719F9401B0228F5D903209EE197
:10270000704A136843F480331360636843B3FFF780
:102710000BF905466B4B1B6813F4003FCBD1FFF759
:1027200003F9401B6428F5D9032088E1B3F5A02FF5
:1027300009D0644B1A6822F480321A601A6822F4B5
:1027400080221A60E1E703F18043A3F53C331A6865
:1027500042F480221A601A6842F480321A60D4E788
:10276000FFF7E2F80546574B1B6813F4003FA2D071
:10277000FFF7DAF8401B6428F5D903205FE1514BDD
:102780005B6813F4803FA5D14E4B1B6813F0020F1A
:1027900003D02369012B40F04F814A4A136823F08C
:1027A000F803616943EAC1031360236813F0080F5B
:1027B00033D0A369002B5CD0434B0122C3F88024A3
:1027C000FFF7B2F805463F4B5B6A13F0020F21D1C9
:1027D000FFF7AAF8401B0228F5D903202FE1394A58
:1027E000136823F0F803616943EAC1031360DCE76F
:1027F000354B00221A60FFF797F80546314B1B68EE
:1028000013F0020FD1D0FFF78FF8401B0228F5D943
:10281000032014E10120FFF701FF236813F0040FE8
:1028200000F09680274BDB6913F0805F34D1254B95
:10283000DA6942F08052DA61DB6903F08053019378
:10284000019B0125214B1B6813F4807F26D0E36890
:10285000012B3DD0002B53D103F1804303F504330A
:102860001A6A22F001021A621A6A22F004021A623B
:1028700033E0154B0022C3F88024FFF755F80546D6
:10288000104B5B6A13F0020FC7D0FFF74DF8401BE7
:102890000228F5D90320D2E00025D3E70B4A1368BC
:1028A00043F480731360FFF73FF80646074B1B683D
:1028B00013F4807FCBD1FFF737F8801B6428F5D95C
:1028C0000320BCE0001002400000424200700040C3
:1028D0005F4A136A43F001031362E36833B3FFF7FF
:1028E00023F806465A4B1B6A13F0020F2FD1FFF74D
:1028F0001BF8801B41F288339842F3D903209EE0F5
:10290000052B09D0524B1A6A22F001021A621A6A88
:1029100022F004021A62E0E74D4B1A6A42F0040208
:102920001A621A6A42F001021A62D6E7FEF7FCFF49
:102930000646474B1B6A13F0020F08D0FEF7F4FF60
:10294000801B41F288339842F3D9032077E0E5B940
:10295000E369002B72D03E4A526802F00C02082A4A
:1029600056D0022B17D03B4B00221A66FEF7DCFF35
:102970000446374B1B6813F0007F47D0FEF7D4FFA7
:10298000001B0228F5D9032059E0314AD36923F00E
:102990008053D361DCE72F4B00221A66FEF7C4FF99
:1029A00005462B4B1B6813F0007F06D0FEF7BCFFDB
:1029B000401B0228F5D9032041E0236AB3F5803F8C
:1029C0001AD023494B6823F47413226A606A0243C5
:1029D00013434B601F4B01221A66FEF7A5FF044606
:1029E0001B4B1B6813F0007F0ED1FEF79DFF001BF1
:1029F0000228F5D9032022E0154A536823F4003356
:102A0000A1680B435360DCE7002018E0002016E0CB
:102A1000012B16D00E4B5B6803F48031226A914281
:102A200011D103F47013626A93420ED1002006E0C4
:102A300001207047012002E0012000E0002002B0E8
:102A400070BD0120FBE70120F9E70120F7E700BF97
:102A500000100240000042420F4B5B6803F00C0282
:102A6000082A01D00D487047C3F383420C49885CA3
:102A700013F4803F0BD0084B5B68C3F34043094A13
:102A8000D35C064A02FB00F0B0FBF3F07047064B44
:102A900003FB00F0704700BF0010024000127A00F4
:102AA00064DF000860DF000800093D00002800F036
:102AB000A08070B50D460446524B1B6803F0070317
:102AC0008B420BD24F4A136823F007030B4313606A
:102AD000136803F007038B4240F08D80236813F0E6
:102AE000020F17D013F0040F04D0474A536843F481
:102AF000E0635360236813F0080F04D0424A536820
:102B000043F460535360404A536823F0F003A168D4
:102B10000B435360236813F0010F31D06368012B1E
:102B200020D0022B25D0384A126812F0020F64D050
:102B300035494A6822F0030213434B60FEF7F4FE66
:102B40000646314B5B6803F00C036268B3EB820FFF
:102B500016D0FEF7E9FE801B41F288339842F0D987
:102B6000032045E0284A126812F4003FE0D101201A
:102B70003EE0254A126812F0007FD9D1012037E0EB
:102B8000204B1B6803F00703AB420AD91D4A1368A8
:102B900023F007032B431360136803F00703AB42D2
:102BA0002DD1236813F0040F06D0174A536823F47D
:102BB000E063E1680B435360236813F0080F07D00C
:102BC000114A536823F46053216943EAC1035360F7
:102BD000FFF742FF0C4B5B68C3F303130B4AD35C54
:102BE000D8400B4B18600B4B1868FEF765FE0020B1
:102BF00070BD012070470120FAE70120F8E70120AD
:102C0000F6E700BF002002400010024050DF00083D
:102C10000000002008000020014B1868704700BF2A
:102C20000000002008B5FFF7F7FF044B5B68C3F313
:102C30000223034AD35CD84008BD00BF0010024005
:102C400048DF000808B5FFF7E7FF044B5B68C3F3F4
:102C5000C223034AD35CD84008BD00BF0010024025
:102C600048DF0008026802F10C0353E8003F23F03C
:102C7000C0030C3242E800310029F3D1202380F850
:102C800041307047026802F10C0353E8003F23F41F
:102C900090730C3242E800310029F3D1026802F14E
:102CA000140353E8003F23F00103143242E80031DB
:102CB0000029F3D1036B012B05D0202380F842308B
:102CC000002303637047026802F10C0353E8003FDE
:102CD00023F010030C3242E800310029F3D1ECE775
:102CE00090F84130DBB2212B01D00220704783687D
:102CF000B3F5805F17D0036A5A1C02621A78036822
:102D00005A60C38C9BB2013B9BB2C3844BB902682F
:102D1000D36823F08003D3600268D36843F0400394
:102D2000D360002070470369002BE4D1036A1B883D
:102D30000268C3F308035360036A02330362E0E7E7
:102D400010B504460268136923F44053C1680B436D
:102D5000136183680269134342691A430168CB68AF
:102D600023F4B05323F00C031343CB600268536980
:102D700023F4407381690B4353610268134B9A42F9
:102D800020D0FFF74FFF024602EB820202EB8202E5
:102D900063689B00B2FBF3F20D48A0FB02314909C6
:102DA000642303FB11231B013233A0FB03035B09E4
:102DB00003F0F00202EB011203F00F032168134449
:102DC0008B6010BDFFF73EFF0246DDE70038014093
:102DD0001F85EB512DE9F84305460F4616469946E7
:102DE000DDF820802B681C6837EA04040CBF01243E
:102DF0000024B4422DD1B8F1FF3FF3D0B8F1000F59
:102E000005D0FEF791FDA0EB09004045EAD92A68FC
:102E100002F10C0353E8003F23F4D0730C3242E874
:102E200000310029F3D12A6802F1140353E8003F6E
:102E300023F00103143242E800310029F3D12023AA
:102E400085F8413085F84230002385F84030032072
:102E500000E00020BDE8F88360B310B5044690F8A8
:102E6000413013B3242384F841302268D36823F41B
:102E70000053D3602046FFF763FF2268136923F4F1
:102E8000904313612268536923F02A035361226837
:102E9000D36843F40053D36000206064202384F897
:102EA000413084F84230606310BD80F84030FEF756
:102EB00027FCD7E7012070472DE9F04182B01E467C
:102EC00090F84130DBB2202B4BD104460D469046A2
:102ED00000294AD00AB9012044E000234364212399
:102EE00080F84130FEF720FD0746A4F82480A4F8BE
:102EF0002680A368B3F5805F02D04FF000080FE092
:102F00002369FBB14FF000080AE038F8023B226861
:102F1000C3F308035360E28C92B2013A92B2E284A6
:102F2000E38C9BB28BB100963B4600228021204669
:102F3000FFF750FFD8B9002DE7D015F8012B236813
:102F40005A60E8E7A8460025EAE700963B460022DB
:102F500040212046FFF73EFF58B9202384F8413036
:102F600000E0022002B0BDE8F0810120FAE7032072
:102F7000F8E70320F6E710B5044603685A6990F8AD
:102F80004130DBB2212B0AD023685A6902F040029B
:102F900094F84230DBB2222B19D0002010BD02F091
:102FA0008002002AF0D0226802F1140353E8003FA7
:102FB00023F08003143242E800310029F3D1A06BE2
:102FC00008B1FEF7C8FD2046FFF74CFEDCE7002AFB
:102FD000E3D0226802F1140353E8003F23F04003DA
:102FE000143242E800310029F3D1E06B08B1FEF75A
:102FF000B2FD2046FFF746FECFE7704708B50168EF
:10300000CA6822F04002CA60202280F84120FFF7FF
:10301000F4FF002008BD70477047704710B5446A40
:1030200023685A6994F84130DBB2212B10D0236811
:103030005A6902F0400294F84230DBB2222B11D0E0
:10304000636C43F0100363642046FFF7E6FF10BD96
:1030500002F08002002AEAD00023E3842046FFF732
:1030600001FEE4E7002AEBD00023E3852046FFF7CA
:1030700009FEE5E708B5406A0023C385C384FFF76E
:10308000CCFF08BD704790F84230DBB2222B69D1EB
:103090008368B3F5805F4FD0826AB3F5805F04D058
:1030A000002B56D10369002B53D103685B68137062
:1030B000836A01338362C38D9BB2013B9BB2C3859C
:1030C000002B51D100B583B00268D36823F02003F0
:1030D000D3600268D36823F48073D36002685369B5
:1030E00023F001035361202380F84230002343631F
:1030F000036B012B33D100230363026802F10C033D
:1031000053E8003F23F010030C3242E8003100295D
:10311000F3D103681A6812F0100F06D00022019252
:103120001A6801925B680193019B818DFFF7AAFFEA
:10313000002003B05DF804FB0269002AACD1826A6A
:1031400003685B68C3F308031380836A02338362F6
:10315000B1E703685B6803F07F031370A8E7FFF72C
:103160005AFFE5E7022070470020704710B582B093
:10317000044602681368D068516913F00F0F09D133
:1031800013F0200F0CD010F0200F09D02046FFF7CD
:103190007AFF16E011F0010115D110F4907F12D1E1
:1031A000216B012979D013F0800F03D010F0800F2C
:1031B00040F0138113F0400F03D010F0400F40F0A7
:1031C000108102B010BD13F0010F06D010F4807F03
:1031D00003D0626C42F00102626413F0040F04D069
:1031E00019B1626C42F00202626413F0020F04D063
:1031F00019B1626C42F00402626413F0080F07D048
:1032000010F0200F00D119B1626C42F00802626424
:10321000626C002AD5D013F0200F02D010F0200FDE
:1032200029D123685B6903F04003626C12F0080F38
:1032300000D163B32046FFF725FD23685B6913F0D7
:10324000400F20D0226802F1140353E8003F23F01E
:103250004003143242E800310029F3D1E36B73B12B
:10326000624A5A63E06BFEF799FC0028A9D0E06B34
:10327000436B9847A5E72046FFF705FFD1E72046B7
:10328000FFF7CBFE9DE72046FFF7C7FE99E72046F4
:10329000FFF7C3FE0023636493E713F0100F82D09F
:1032A00010F0100F3FF47FAF0023019313680193D8
:1032B00053680193019B536913F0400F51D0E26BA7
:1032C00013685B689BB2002B3FF47BAFA18D9942E2
:1032D0007FF677AFE3859369202B37D0226802F120
:1032E0000C0353E8003F23F480730C3242E80031B2
:1032F0000029F3D1226802F1140353E8003F23F0C0
:103300000103143242E800310029F3D1226802F1AE
:10331000140353E8003F23F04003143242E8003125
:103320000029F3D1202384F842300023236322684C
:1033300002F10C0353E8003F23F010030C3242E883
:1033400000310029F3D1E06BFEF705FC0223636333
:10335000A18DE38D9BB2C91A89B22046FFF792FE78
:103360002FE7A18DE38D9BB2C91A89B2E38D9BB281
:10337000002B3FF426AF00293FF423AF226802F16F
:103380000C0353E8003F23F490730C3242E8003002
:103390000028F3D1226802F1140353E8003F23F020
:1033A0000103143242E800300028F3D1202384F8CE
:1033B000423000232363226802F10C0353E8003FEC
:1033C00023F010030C3242E800300028F3D102232E
:1033D00063632046FFF756FEF3E62046FFF780FCC6
:1033E000EFE62046FFF70AFEEBE600BF7530000867
:1033F00008B5406A01234363036B012B02D0FFF73A
:103400000BFE08BD818D4908FFF73CFEF9E708B5C2
:103410000346406A1B681B6813F0200F2BD1002362
:10342000C385026802F10C0353E8003F23F4807364
:103430000C3242E800310029F3D1026802F1140392
:1034400053E8003F23F00103143242E80031002921
:10345000F3D1026802F1140353E8003F23F0400364
:10346000143242E800310029F3D1202380F84230A1
:10347000036B012B07D000234363036B012B0FD099
:10348000FFF7C9FD08BD026802F10C0353E8003FD5
:1034900023F010030C3242E800310029F3D1EAE7AF
:1034A000818DFFF7EFFDEDE730B583B0044613469D
:1034B0008162828500254564222280F84220C26B09
:1034C0001F489062E26B1F48D062E26B1E48106397
:1034D000E26B556320680A46011DE06BFEF700FBB6
:1034E000019523681A6801925B680193019B236927
:1034F0005BB1226802F10C0353E8003F43F4807390
:103500000C3242E800310029F3D1226802F11403A1
:1035100053E8003F43F00103143242E80031002930
:10352000F3D1226802F1140353E8003F43F0400353
:10353000143242E800310029F3D1002003B030BD3D
:103540000F340008F13300081D30000808B590F86A
:103550004230DBB2202B08D149B10AB9012008BDA5
:1035600000230363FFF7A0FFF9E70220F7E701203C
:10357000F5E70000002100F0CFBF00BF0A220021C4
:1035800001F072B8000000002DE9F04F9FB08846AE
:103590000792002100220024CDE90412834641460F
:1035A0001A9419910F4611F8012B2D2A5ED801A00B
:1035B00050F822F08B3700086D3600086D36000891
:1035C0006D3600086D3600086D3600086D3600084F
:1035D0006D3600086D360008A3350008A3350008D5
:1035E000A3350008A3350008A33500086D36000890
:1035F0006D3600086D3600086D3600086D3600081F
:103600006D3600086D3600086D3600086D3600080E
:103610006D3600086D3600086D3600086D360008FE
:103620006D3600086D3600086D3600086D360008EE
:103630006D360008A33500086D3600086D360008A9
:103640006D3600086D3600086D3600086D360008CE
:103650006D3600086D3600086D3600086D360008BE
:103660000D3D00086D360008213D0008002108913D
:10367000302A00F09580002309932F2A144640F247
:10368000EF844FF0000938464E464D4613E00130B6
:10369000082D1990C8BF09EB89090478C6BF02EB51
:1036A0004902A2F13009A3F130062F2C224605F180
:1036B000010540F3B48006EB8603392C02EB43038B
:1036C000E5DD0122AB4901F00FFA002879D1199A02
:1036D0001346013219925C78002D40F08D85302C14
:1036E00040F03B8513461846013319931C78302C63
:1036F000F9D0C2F101021044A4F13103082B37D8EC
:10370000199F012539464FF0000A431CA4F1300EE1
:103710000C93002006EB86060EEB46064B1C199315
:103720004C78A4F13002092A00F2E08296461999F9
:103730000130002AF2D00128D8BF05F1010C40F376
:10374000878400EB050C0CF1FF340A9703E07E0040
:10375000AC4200F07C84082D06EB860705F10105DC
:10376000F5DD102DDCBF09EB89094FEA4909EFE7C8
:10377000652C40F0D8824FF0000A0123CDF830A02C
:103780000A93099B034340F0BF82079B0026002752
:103790000BB1C3F80080304639461FB0BDE8F08F4A
:1037A0007A7802F0DF02582A00F012840137199764
:1037B0003A78302AFAD0002A00F081820123099356
:1037C0005BE70020AA460C900A90652C34D0452C6B
:1037D00032D000231093002D7AD1099B034340F08F
:1037E0006E820A9B002BD0D1692C00F0898400F3F3
:1037F0005F84492C00F084844E2CC6D15E4919A800
:1038000001F040FF0028C0D0199B1B78282B00F046
:10381000A5855A4801F0A2FA06460F4651E2012258
:10382000544901F061F90028CBD1199BAA465A1CD2
:1038300019925C780C9074E7002DA2D0DDF86480BA
:1038400008F10103199398F801402B2C00F05982DC
:103850002D2C00F04E824FF0000CA4F1300109290C
:1038600000F23F82302C199B0AD1013319931C7846
:10387000302CFAD0A4F13102082AAAD8A4F13001E0
:103880005A1C19925C782F2C40F3FE8396460B93BA
:1038900008E0013219929EF80140A3F130012F2C6B
:1038A00006DD964601EB8103392C04EB4303F0DD82
:1038B0000B9BD21A082A40F3E78344F61F63109348
:1038C000BCF1000F87D0109B5B421093002D84D079
:1038D0000C9A109BBAF1000F08BFAA469B1A102D34
:1038E00030460B932C46A8BF1024FDF78BF80246F8
:1038F0000B46092DCDE9042316DD214B03EBC40350
:1039000053E91223FCF704FC0246484690468946D8
:10391000FDF778F802460B4640464946FCF736FF6D
:103920000F2DCDE904012DDC0B9B002B00F0208333
:103930000B9B40F35282162B40F3AD830B9AC5F1DB
:10394000250393421EDBDDE904230D4CC5F10F0571
:1039500004EBC501D1E90001FCF7DAFB0B9B5D1B11
:1039600004EBC504D4E90023FCF7D2FB06460F465E
:10397000A7E100BF10D5000820D5000800D5000839
:1039800000E200080B9B2C1B1C44002C40F3D1814F
:1039900014F00F000AD0DDE90423354901EBC00122
:1039A000D1E90001FCF7B4FBCDE9040134F00F03C9
:1039B00040D0B3F59A7F00F3B883102B4FEA23145D
:1039C00040F31E85DDE9040100232A4A0997904649
:1039D00099461746E20704D5D8E90023FCF798FB7F
:1039E00001236410012C09F1010908F10808F1D143
:1039F0003A46099F0BB1CDE90401059B02EBC901D1
:103A0000A3F154730593DDE90423D1E90001FCF728
:103A10007FFB194B194A0B409342CDE9040100F298
:103A20008483174A934240F241844FF0FF33154C90
:103A3000CDE9043400230A932B46524639465846B2
:103A4000009602F079FA1490002800F06E83109A24
:103A50000C9B4FF0000A9B1A0B9ACDF824A0002A69
:103A6000A8BF0023109322EAE2731593E5E000BF9C
:103A700000E20008D8E100080000F07F0000A07C10
:103A80000000907CFFFFEF7FD21A1F2AA4EB0204F4
:103A900000F33282012393401E4600250A9BA04476
:103AA0004C44A14598444B46A8BF23464345A8BF74
:103AB0004346002B04DDE41AA8EB0308A9EB030935
:103AC000109B002B00F3BE81002C00F3D4810B9BD4
:103AD000002B00F30782B8F1000F00F3F781B9F172
:103AE000000F08DD51464A46584602F007FC824660
:103AF000002800F0F4813A4658461A9902F094FCE6
:103B00000990002800F0EB810023099AD168D36066
:103B10001191514602F068FC0028C0F2EA83DDF8FA
:103B2000149000F076835146099802F019FE0022A5
:103B30004FF0804304460D46FCF766FD002800F078
:103B40007181119B002B40F0E381049B002B40F01E
:103B50006B82C9F31303002B40F00D820022204634
:103B60002946A94BFCF746FD002840F04983204632
:103B7000A64B29460022FCF7CBFA03460C46CDE9BA
:103B8000123401F100430E900F93DFF88482A14BB1
:103B900009EA08089845DDE90E4500F0C0810A9B56
:103BA0001BB3B8F1D46F20D895A3D3E90023DDE986
:103BB0001201FCF729FDA0B1DDE91201FCF7B2FF0B
:103BC000012838BF0120FCF71DFF119BCDE9120130
:103BD000002B40F0BD8201F1004316901793DDE900
:103BE000164505F1D663A3EB0805DDE90C0102F0EB
:103BF000D7FC02460B4620462946FCF789FADDE948
:103C00000C23FCF7C3FD0C46CDE904010A9B23B944
:103C10007F4B2340984500F0B78158461A9902F02F
:103C20002FF93946584602F02BF95146584602F012
:103C300027F95846099902F023F9149C58466168FF
:103C400002F0F8F80746002800F04981226904F1E3
:103C50000C01023292000C30FCF71CFD1CAB0193EE
:103C60001BAB00935846DDE904341A46CDE90C3409
:103C7000234602F017FD1A90002800F0058101216B
:103C8000584602F001FA8246002800F028811B9B6A
:103C9000002BC0F21581109ADDF8548003EB020965
:103CA0000A9A1C9C9B1A23445B4A013B9342C4F131
:103CB0003604FFF6E9AE012300251E46EEE6002697
:103CC0000027079A0AB1199B1360089B002B3FF449
:103CD00062AD07F100431F46304639461FB0BDE8CC
:103CE000F08F0023CDF86480109374E501230A93CC
:103CF0006BE54FF0010C08F10203199398F80240AC
:103D0000ABE54FF0000CF6E7002597E5002208929E
:103D1000791C19917A78002A3FF437AD0F46A7E451
:103D200001220892F4E7452C3FF425AD01230A93C4
:103D300053E53FF47FAE644214F00F020AD0DDE990
:103D40000401364B03EBC203D3E90023FCF70AFB63
:103D5000CDE9040124113FF46DAE1F2C37DCDDE901
:103D6000040114F0100318BF6A230A930023DFF83C
:103D7000B080E20704D5D8E90023FCF7C9F9012394
:103D8000641008F10808F4D10BB1CDE904010A9BD5
:103D9000A3B1DDE90401C1F30A52C2F16B03002BA8
:103DA0000ADD1F2B40F339830020342B049040F3AD
:103DB0007C834FF05C7305936A230A930022DDE94C
:103DC00004010023FCF70CFC00283FF435AE22234D
:103DD00000260027CBF8003073E71633FFF6D2AD8C
:103DE000DDE904010C9B109A9A1A0C4B03EBC203F9
:103DF000D3E90023FCF7B6FA06460F4661E700BF99
:103E00000000C0FFFFFFDF410000F03F0000E03F87
:103E10000000F07F0000E07F02FCFFFF00E20008EE
:103E2000A0DF0008AC4B204629460022FCF770F9C1
:103E3000119BCDE91201002B65D101F100430E90D9
:103E40000F93A2E651461A46584602F0FDF9824603
:103E5000002844D001461A9A584602F043F9002837
:103E60003DD011901A99584602F00AF8119B002C87
:103E70001A937FF72CAE224658461A9902F03EFA62
:103E80001A9000287FF423AEB94605462223002667
:103E9000924FCBF800302946584601F0F1FF4946D1
:103EA000584601F0EDFF5146584601F0E9FF5846EB
:103EB000149901F0E5FF5846099901F0E1FF00E788
:103EC000159ADDF84090A2EB0308E9E63946424630
:103ED000584602F013FA074600287FF400AEB946B0
:103EE0001A9DD3E739465846159A02F0ADF90746B0
:103EF00000287FF4F0ADF2E7012279491646CB1A8B
:103F000002FA03F5CAE5DDE91234CDE90E343CE6E8
:103F10000023744CCDE90E34CDE9123435E6A9F115
:103F200054730593DDE904452046294602F038FB29
:103F3000DDE90E23FCF7ECF82B462246FCF726FCC5
:103F4000DFF89891684B01EA09099945CDE9040128
:103F500079D9DDE90C0103F15473994202D1064687
:103F60000136BCD04FF0FF33604CCDE9043454E649
:103F7000DDE90467A5E600235D4CCDE90E3400239E
:103F8000584CCDE9123400E6DDE912562846314698
:103F900009F010FAFCF782FD0B460246314628462E
:103FA000FCF7F2FB119D049BC4F313041D432C4347
:103FB0008046894626D142A3D3E90023FCF71AFBA9
:103FC00000283FF42AAEB946DDE904671A9D62E78E
:103FD0000293089B584601931AAB0093454A1BABCA
:103FE00019A901F07BF810F00F0504463FF467AE05
:103FF000062D40F0B58000227B1C00260027089289
:1040000019935EE630A3D3E90023FCF7F3FA002806
:10401000D9D12FA3D3E9002340464946FCF708FB3A
:1040200000283FF4FAADCEE7049B012BA3D1B9F1F0
:10403000000FA0D1B9461A9C22232546002600274E
:10404000CBF8003027E701F154740594DEE50A9FB0
:104050000C9B082D03440C936DDC6546FFF759BBA0
:1040600001223846244900F03FFD002800F0BB80C3
:104070004FF000094E4648464D46CA46CDF83090AE
:10408000CDF82890FFF7A3BB44F61F639942A8BF61
:104090001946109114E40B981849DDE9042301EB4B
:1040A000C001D1E90001FCF733F806460F4608E6E7
:1040B0006E2C3FF4A3ABFFF768BB00BFAFF30080EB
:1040C0009535A094FFFFCF3F9535A094FFFFDF3FCC
:1040D00035E5AF350000E03F0000E03F0000F07F35
:1040E000E2FBFFFF0000F03FFFFF9F7CFFFFEF7F41
:1040F0000000F0BF88DF000810D5000800E20008CB
:10410000A04919A801F0BEFA00283FF43EAB199B64
:104110009D49013B19A8199301F0B4FA10B9199BF4
:10412000013319930026994FCBE522230026974FA0
:10413000CBF80030C5E5BCF1100FD8BF09EB8909F9
:1041400065464FF00000D8BF02EB4909FFF7E6BA19
:10415000DDE91234CDE9163441E50020FFF7CCBA91
:104160001A9A3AB135211CA802F028FB58461A9930
:1041700001F086FE013D1B9B042D00F2C481DFE8A7
:1041800005F0032C291E03001C9A049203F233420B
:104190001D9B23F4801343EA02530593E10502D5E6
:1041A00043F000430593794ADDE904671A40002A89
:1041B0007FF487AD00F06EFD2223036081E54FF0B0
:1041C000FF326FF00043CDE90423E3057FF5D0AE65
:1041D000059BE5E76D4B0593F7E7DDE91C121D9B99
:1041E000CDE90412DAE7199A06461346013219920C
:1041F00081465C78FFF773BAAA460C90FFF791BA34
:104200000023634CCDE90E340023624CCDE9123417
:10421000BBE44B461198B446B946DDE90C67AE469F
:104220005D49C3F31302002845D08A4200F0FD80A7
:10423000ADBB049A1CEA020F34D0304639460493D1
:1042400002F0AEF90A9B002B00F03781049BC3F308
:104250000A53C3F16B03002B40F352811C0504F198
:104260007F53002203F54013FBF752FF02460B4633
:1042700030463946FCF78AFA06460F46304639463C
:10428000464B0022FBF744FF404B06460B400F46CF
:10429000002B7FF49BAE2223CBF8003096E61EEA7B
:1042A000030FCAD10A9B002BE8D18FE601F15473AA
:1042B0000593FFF7BFBB002A74D1DDE90445224610
:1042C000002C40F0A2800A9A002A40F0CB8025F012
:1042D0000044240D2405A4F580146FEA14536FEAFA
:1042E000035305934FF0FF3304931A9DDDE90467F0
:1042F000D1E5119BDDE904010343B946DDE90C6713
:10430000D0D1C1F31303002BCCD121F00044240DF4
:104310002405B4F1D66F2546C4D9099A536913B957
:104320001369012BBEDD01220999584601F0E6FF11
:104330005146099002F058F80028B3DD0A9B002B83
:10434000C9D0A5F580136FEA13536FEA03530593A1
:104350004FF0FF330493DDE904678FE7104919A894
:104360001CAA01F0A9F905287FF453AA1D9B43F06C
:10437000FF4343F4E00305931C9B0493DDE90467CA
:104380009FE400BF14D5000818D500080000F07F96
:104390000000E0BF0000E03FFFFF0F0000005039C9
:1043A00074DF0008A5BB049A1CEA020F3FF47AAF41
:1043B00030463946049302F0F3F80A9B002B62D092
:1043C000049BC3F30A53C3F16B03002B40F38C80AF
:1043D0001C0504F17F53002203F54013FBF798FE00
:1043E00002460B4630463946FCF7CEF90022002340
:1043F00006460F46FCF7F4F800283FF43FAF1AE6F4
:104400004FF00009414AFFF7F8BABEF1000FCBD0D8
:104410001EEA030F3FF446AFCAE74FF0FF3202FA3D
:1044200003F3049A1A400492C6E40A9A0499B2B1BA
:10443000374A1A40B2F1D46F11D84FF0FF30120D45
:10444000C2F16B0200FA02F2914240D0BEF1000FBD
:104450007FF425AF11EA0C0F3FF424AFEDE64FF0E7
:10446000FF32F1E72A4D1D40B5F1D66F3FF669AF37
:10447000B5F15C7F3FF602AF2223002600271A9D8C
:10448000CBF8003007E502460B4630463946FCF7CC
:104490007BF91A9C0022002306460F462546FCF7AE
:1044A0009FF800283FF4F7ACC6E54FF0FF33C2F1A8
:1044B0004B0293400B4005937EE402460B46304688
:1044C0003946FCF763F91A9D06460F46E3E4114AA4
:1044D00093420CD00E4A1A4002F580130593002334
:1044E0000493DDE90467DDE602460B467AE7013115
:1044F000F0D1222300261A9D054FCBF80030CAE4E4
:1045000002460B46B4E6002348E600BFD8E10008A7
:104510000000F07FFFFFEF7F84460A460249034B0D
:1045200008686146FFF730B88401002018000020B9
:10453000242B2DE9F84F42D8012B40D01F468E4640
:104540008046484875461EF801BB10F80B4014F031
:104550000804F7D1BBF12D0F6FD06FF00049BBF10C
:104560002B0F04BF9EF800B005F1020E7BBBBBF120
:10457000300F4CD00A273B460025B9FBF7F62846FA
:1045800007FB169A05E03BD0012507FB00C01EF88B
:1045900001BBABF1300CBCF1090F06D9ABF1410CFA
:1045A000BCF1190F1AD8ABF1370C63451FDDB5F11B
:1045B000FF3FECD08642E6D24FF0FF35E7E700F050
:1045C00069FB1622034600201A60BDE8F88F102B05
:1045D000D2D1BBF1300F23D01F46CDE7ABF1610C38
:1045E000BCF1190F03D8ABF1570C6345DFDC6B1C32
:1045F0002BD054B9002AE8D085BB1160BDE8F88FF4
:10460000E245C1DA4FF0FF35C1E74042F2E79EF8DC
:10461000003003F0DF03582B08D008273B46ABE7F8
:104620009EF8000000F0DF005828D5D110279EF832
:1046300001B03B460EF1020E9EE79EF800B04FF02F
:104640000049012405F1020E90E72223C8F800304A
:1046500032B10EF1FF3148461160CFE78146F8E7ED
:104660004846B2E7C9DF00088C4600B586461346C7
:10467000034A714610685DF804EB6246FFF758BFC5
:1046800084010020024A0349034800F0C9B800BF72
:104690000C00002021B10008880100200C4B41686B
:1046A00010B59942044601D006F03AFDA168094BC5
:1046B000994202D0204606F033FDE168064B99424C
:1046C00004D02046BDE8104006F02ABD10BD00BF52
:1046D000B808002020090020880900202DE9F843AF
:1046E00000250423304C314A3149DFF8C890DFF807
:1046F000C880324F324E116004F15C002946082216
:10470000C4E90335C4E90055C4E90555A5606566EB
:1047100000F09AF904F15800C4E90749C4E909878F
:10472000E66200F0E5FA274B2946082204F1C400AE
:104730006367C4E91A55C4E91E552567C4F8CC500F
:10474000C4F8805000F080F904F1680304F1C0005F
:10475000C4F88430C4E92298C4E9247600F0C8FA89
:10476000194B294604F596700822C4F8DC30C4E9D8
:104770003455C4E93855C4F8D850C4F83451C4F895
:10478000E85000F061F904F1D003C4E93D87C4F8B2
:10479000F09004F59470C4F8FC60C4F8EC30BDE807
:1047A000F84300F0A5BA00BFB8080020F0090020C7
:1047B00085460008B9490008DD4900081D4A00087F
:1047C000414A0008090001001200020010B5044629
:1047D0000A4800F091FA636B23B9094B094A1B6838
:1047E000626323B1BDE81040044800F087BAFFF7C8
:1047F00075FFBDE81040014800F080BA000A0020B3
:10480000F00900209D460008014800F075BA00BF7D
:10481000000A0020014800F071BA00BF000A002021
:104820002DE9F8434FF0000980460F461646D6E9B9
:104830000154013D10D4A389012B08D9B4F90E30DD
:10484000013304D021464046B84749EA0009013DFA
:104850006B1C04F16804EED13668002EE7D148469F
:10486000BDE8F8830FB400B5074A83B004AB106805
:1048700053F8042B8168019303F0A0FD03B05DF8A9
:1048800004EB04B0704700BF8401002030B505463A
:1048900089B008460C4600F033FA01230222204971
:1048A00007936B6B0691029204A9421C0494019138
:1048B000AC6805900392002B2ED0626EB4F90C30D8
:1048C000D20701D4980521D5990406D4626E43F429
:1048D000005322F40052A3816266284601AA2146B1
:1048E00006F03CFD636E00280CBF0A254FF0FF3533
:1048F000DA0702D4A3899B0502D5284609B030BD4A
:10490000A06D00F0FBF9284609B030BDA06D00F0A5
:10491000F3F9B4F90C30D7E72846FFF757FFCCE797
:1049200024D50008024B01461868FFF7AFBF00BF4F
:10493000840100200CB410B51E4B00291C689CB0EB
:1049400033DB4FF402734FF6FF7CADF81430029066
:1049500006901FAB16D001391E9A0491079120468C
:1049600002A90193ADF816C001F092FF421C01DAD2
:104970008B2323600022029B1A701CB0BDE81040FC
:1049800002B070470491079120461E9A02A9019334
:10499000ADF816C001F07CFF431C01DA8B232360C5
:1049A0001CB0BDE8104002B070478B234FF0FF30C1
:1049B0002360F5E78401002010B50C46B1F90E1014
:1049C00000F03CF9002803DB236D0344236510BD90
:1049D000A38923F48053A38110BD00BF2DE9F041CA
:1049E0000C46B1F90C101F46CB05054616460BD4F4
:1049F00021F48051A1813B4632462846B4F90E107D
:104A0000BDE8F04100F030B9B4F90E1002230022E5
:104A100000F0FEF8B4F90C10EAE700BF10B50C4640
:104A2000B1F90E1000F0F4F8B4F90C30421C0EBFCE
:104A300023F4805343F480532065A38110BD00BF4D
:104A4000B1F90E1000F0D2B870B5860747D0541EE9
:104A5000002A3ED00346CAB201E0013C39D303F834
:104A6000012B9D07F9D1032C2CD9CDB205EB0525DF
:104A70000F2C1A4605EB054534D9A4F1100C2CF087
:104A80000F0603F1100EB6444FEA1C1CC2E9005594
:104A9000C2E9025510327245F8D10CF1010214F04E
:104AA0000C0F03EB021204F00F0C13D0ACF1040353
:104AB00023F003030433134442F8045B9342FBD115
:104AC0000CF003042CB1C9B21C4403F8011BA3422F
:104AD000FBD170BD64461346002CF4D1F9E70346C0
:104AE0001446C0E7A446E1E7002A3ED0844630B52C
:104AF0000446084380070B462ED1032A07D82BE033
:104B0000043A25D01EF0803F22D1032A22D919462B
:104B10002068A446A0F1013323EA000E0B4653F8A7
:104B2000045B0434A842EBD09CF800000C7884426B
:104B30001DD1E64668B11EF8010F11F8014FA2EB36
:104B40000E03A04203F1FF3311D11CEB0303F1D19B
:104B5000002030BDA44619469CF800000C78A04205
:104B600005D1012AF4D0E646E4E710467047001B61
:104B700030BD00BF40EA01039B0710B524D1032AD2
:104B800022D98E468446DEF800407146A4F10133F6
:104B900023EA040313F0803F0EF1040E15D1043A0A
:104BA000032A4CF8044BEED8714601F1FF3E52B196
:104BB00063461EF8011F541E03F8011B41B1224633
:104BC0009C46002AF4D110BD844601F1FF3EEEE779
:104BD0009444002CF7D003F8011B6345FBD110BDB2
:104BE000014B93F82801704718000020002238B5C7
:104BF000064D044608462A60FCF71CFD431C00D005
:104C000038BD2B68002BFBD0236038BDF409002091
:104C100038B50C46114600228446074D20462A60CE
:104C20001A466446FCF710FD431C00D038BD2B68C3
:104C3000002BFBD0236038BDF409002038B50C46AA
:104C4000114600228446074D20462A601A466446D3
:104C5000FCF7D2FC431C00D038BD2B68002BFBD0E6
:104C6000236038BDF409002038B50C4611460022F7
:104C70008446074D20462A601A466446FCF7CCFC61
:104C8000431C00D038BD2B68002BFBD0236038BDFF
:104C9000F4090020014B1868704700BF8401002010
:104CA00070B50F4B0F4DAB42A3EB050607D00024A8
:104CB000B61055F8043B01349847A642F9D808F0DD
:104CC000AFFB094D094B5E1BAB424FEAA60606D06F
:104CD000002455F8043B01349847A642F9D870BD2A
:104CE00030E3000830E3000830E3000838E3000850
:104CF000704700BF704700BF704700BF704700BFDC
:104D000020F0030110F00300C0F1000051F8043B53
:104D100000F1040C4FEACC0C6FF000021CBF22FA29
:104D20000CF213434FF0010C4CEA0C2C4CEA0C4CE7
:104D3000A3EB0C0222EA030212EACC1204BF51F8E0
:104D4000043B0430F4D0C2F1000102EA0102B2FADD
:104D500082F2C2F11F0200EBD2007047002001492D
:104D6000704700BF0000F87F024B13B1024800F00B
:104D700005B870470000000011B900080023014683
:104D80001A46184606F068BE2DE9F8430646082084
:104D9000894606F0D1FD0546DFF89880304601F0DF
:104DA0003DF8D8F808305F6827F00307A7F1110431
:104DB000A4EB09042C44B4FBF5F4013C05FB04F41A
:104DC000A54208DC0021304606F090FDD8F80830F6
:104DD0003B44984205D0304601F026F80020BDE85B
:104DE000F8833046614206F081FD01300FD0124A4F
:104DF000D8F808303F1B47F001075F601368304662
:104E00001B1B136001F010F80120BDE8F88300219E
:104E1000304606F06BFDD8F80820831A0F2BDADD38
:104E200043F001035360054B03491B68C01A086037
:104E3000D1E700BFB8020020080A0020AC02002021
:104E400000297CD0F8B50C46064600F0E7FF54F880
:104E5000043C764FA4F1080523F001016818D7F847
:104E600008C04268844522F0030200F08380DB071B
:104E7000426000EB020C33D454F8084CDCF80430E8
:104E80002D1B2144AC6807F1080C644503F00103B5
:104E900064D0D5F80CE0C4F80CE0CEF80840002B44
:104EA00000F0818041F001036B600160B1F5007F8B
:104EB00022D20122CB0849098A40796801330A438A
:104EC0007A6057F8331007EBC302083AC5E90212BB
:104ED00047F83350CD603046BDE8F84000F0A4BF3D
:104EE000DCF80430DB072BD541F00103B1F5007F7E
:104EF00044F8043C0160DCD3B1F5206F4FEA512344
:104F000053D28B0903F1390003F13802C300F818BA
:104F1000FB580838984203D161E09B68984204D05E
:104F20005A6822F003028A42F7D8D868C5E90230ED
:104F300085603046DD60BDE8F84000F075BF704721
:104F4000114407F1080C836863453FD0C268DA60FA
:104F5000936041F001036B606950A7E7002B5FD1BC
:104F60000A44D0E90213CB60996042F001036B6000
:104F7000AA50B0E70A44D90707D454F8083CED1A00
:104F80001A44D5E90213CB60996042F001036B60CB
:104F9000274BBD601B6893429DD8264B304619684D
:104FA000FFF7F2FE97E71144CDE7142B08D9542BF5
:104FB0001DD80B0B03F16F0003F16E02C300A6E7CF
:104FC00003F15C0003F15B02C300A0E741F00103C1
:104FD000C7E90455C5E902CC6B6069507BE7012144
:104FE000921001FA02F279680A437A609EE7B3F5FB
:104FF000AA7F06D8CB0B03F1780003F17702C30038
:1050000085E740F25452934206D88B0C03F17D00A1
:1050100003F17C02C3007AE74FF47E737E2276E7C9
:1050200041F001036B60016055E700BFB80200204A
:10503000B0020020380A00202DE9F0410469B4EBE9
:10504000611F05DC0023036100234361BDE8F0819B
:1050500000F114054E1111F01F0C05EB840E05EB49
:10506000860321D055F8261004339E4521FA0CF111
:10507000CCF120082DD92F461A6802FA08F20A430B
:1050800047F8042B53F8041B9E4521FA0CF1F3D882
:10509000A31B9B00053B9B08013305EB830445F8EC
:1050A000231079B104340DE09E4588BF00F1100251
:1050B000C8D953F8041B9E4542F8041FF9D8A41B15
:1050C00005EB8404631B9B10AC420361BCD0BDE8BC
:1050D000F08141610029B5D02C46E3E72DE9F04F7E
:1050E0001C4685B000900868934682780B46302AAB
:1050F000029440F0F381C11C0A780C46302A01F179
:105100000101F9D0A4EB0009A9F10209DFF8C0827E
:1051100018F80220002A00F0EF80002722783D4690
:1051200018F80220002A00F07781264616F8012F91
:1051300018F80220002AF9D101223046A54901932E
:10514000FFF7D2FC019B824600284DD03278002D1B
:1051500000F0A581A5EB060A4FEA8A0A02F0DF02F9
:10516000502A35464DD01E60002F74D12B1B013BB9
:10517000072B394604DD5B10072B01F10101FADC36
:10518000009800F057FE0346002800F06A8200F104
:105190001406A542019640F2CA8100270390B94641
:1051A0000DE0202F1AD0394604372A7818F802204B
:1051B00002F00F028A4049EA0209A54254D015F8CC
:1051C000012D2E2AEDD1A542EBD30122284681499B
:1051D000FFF78AFC0028F0D0202FE4D1002146F808
:1051E000049B04278946E0E7002D00F068813278AF
:1051F000A5EB060A02F0DF02502A35464FEA8A0A7A
:10520000B1D16A782B2A00F048812D2A40F0D58050
:105210000120AA78AE1C18F802104A1E182A00F2C3
:10522000D5807278103918F8022001365AB90CE08E
:1052300001EB810102EB4102A2F1100116F8012FEE
:1052400018F802200AB1192AF2DD00B149428A4455
:105250001E60002F8AD0B9F1000F0CBF0625002573
:10526000284605B0BDE8F08F039B019A46F8049BE1
:10527000B61AB6101E614846039300F0B5FE7601DB
:10528000DBF80040361AA642039B76DCC0F20981A7
:105290000027DBF808205245C0F23E81DBF80420ED
:1052A00052454EDDA2EB0A0A544500F39580DBF827
:1052B0000C10022900F0E180032900F0538101293C
:1052C00040F0DF80544540F0DC80012C0AD01846C5
:1052D000611E039301F0A2FA039B002800F0D18025
:1052E000DBF804200121029862250260019A19610D
:1052F00011600E9A1360B3E70122204635490193ED
:10530000FFF7F2FB019B0746002840F08780627898
:10531000651C18F80210002900F08280302A2C4603
:1053200040F02B8114F8012F302AFBD018F802200E
:105330004FF00109B2FA82F77F09002A7FF4F5AE37
:105340006AE0012587B1DBF80C20022A6FD0032A1E
:1053500071D0012A06D1B90704D5019A1268174302
:10536000FA076BD445F0100528460E9A1360029B8D
:10537000C3F800A005B0BDE8F08F361B18463146D3
:1053800001F04CFA039B074678B10127711E019882
:105390004A1150F8220001F01F0207FA02F20242FD
:1053A00003D0B94200F3CF80022718463146039359
:1053B000B244FFF741FE039B6BE718F80210002090
:1053C0004A1E182A05F101067FF62BAF2E46CAE6C3
:1053D000CCE0000810D500080AF1FF35002F40F09E
:1053E000A480002D40F0A78001220198691150F897
:1053F000211005F01F05AA400A42184651460393A2
:1054000018BF47F00207A4EB0A04FFF715FE0225B8
:10541000DBF804A0039B95E726468DE62546227817
:1054200002F0DF02502A00F099801D6013E70F9A06
:10543000C2F101020F920F9A002A93D001991E69BE
:1054400088460A4600274FEA860901EB860003E0FA
:10545000904242F8047C45D9944652F8041BB1F1BD
:10546000FF3FF5D00131022DCCF800107ED014F0B2
:105470001F0440F0AE80212576E70F9900293FF404
:1054800031AF50251946009800F0FAFC0023284659
:105490000E9A136005B0BDE8F08F0020B9E6AA4669
:1054A0005CE6A61B19463246009800F027FF00F183
:1054B000140203460027AAEB060A0192E9E6727875
:1054C000751C18F802102E4600293FF447AE16F856
:1054D000012F18F802100029F9D13BE64FF000091E
:1054E000841C13E69A6896424ADA0121022D06EBE3
:1054F000010003EB86061861DDF80480716135D088
:10550000002874DC00221A6100225A61DBF80820AE
:105510000AF1010A5245AEDA1946009800F0B0FCD3
:1055200000230E9AA32513609AE601275CE74FF04B
:105530000009019E99E618462946039301F06EF989
:10554000039B074650E71846B11E039301F066F926
:10555000039B00283FF428AF032726E74FF0000AFB
:1055600001274EE60F9900298BD0BBE6DBF800201F
:10557000013AA24262D02225F6E64FF00109D4E5B5
:10558000596800980131019300F054FC019B0746D3
:1055900000286CD01A6903F10C01023292000C3021
:1055A0000193FBF777F8019B0098194600F068FC1F
:1055B00001213B69022D03EB010007EB83033861F6
:1055C00007F1140859613B46D0D08642BFF64FAF71
:1055D00096E7C14459F8040C019300F005FDC4F1AD
:1055E0002004A042019BBFF646AF186988E75A69BC
:1055F00008EB800003F11804A0424FEA520229D9B7
:105600004546216842EAC17245F8042B54F8042B40
:10561000A0424FEA5202F4D8C11A1939890801315F
:1056200048F8212008EB810102B10431A1EB080206
:10563000921041451A617FF469AF65E7012261115B
:1056400058F8211004F01F04A2400A4214BF21257B
:10565000222589E6C8F800200AB14146E5E71A612B
:1056600052E70246E421054B054806F035FA0246AA
:105670008421024B024806F02FFA00BF6CD50008C7
:1056800080D5000810B504688646013409E014F896
:10569000013BA3F1410CBCF1190F98BF2033934299
:1056A00007D111F8012B002AF1D10120CEF80040DA
:1056B00010BD002010BD00BF0B682DE9F04F59113F
:1056C00002EB810113F01F0306464FF000050DBFEA
:1056D0000846081D8E46A1F1040E316840F8045CAE
:1056E0004C1C497885B0002900F0AF807746F4461D
:1056F0000093AA460B46A9467146AB469646DFF88C
:1057000084810246019610E0202B00F296804D45E0
:1057100008DD674502D9BAF1070F67DDE6455CD3BE
:105720004FF0080A14F8013FB3B118F80360002ED7
:10573000EAD00AF1010ABAF1080F05F1010542DCCD
:10574000DCF800301B0106F00F061E43CCF80060A9
:1057500014F8013F002BE8D1104672468E46009B9C
:10576000002D72D0BC4502D2BAF1070F74DD62453C
:1057700055D26346111F53F8044B734541F8044F4B
:10578000F9D9AEEB0C0323F003030EF1010104334E
:105790000CF1010C8C4588BF04230021134443F80D
:1057A000041B7345FBD950F8041C19B107E05EF8DF
:1057B000043D23B97245FAD10123CEF8003005200B
:1057C00005B0BDE8F08FE645ACD24CF804BC002330
:1057D0004FF0010AACF1040CB5E7ACF104074CF84A
:1057E00004BCA946BC464FF0000A9BE7CAF108007A
:1057F00080006646CDE902C2DCF800308446C0F184
:10580000200A706800FA0AF21A4320FA0CF3326098
:1058100046F8043FB742F4D8DDE902C27EE750F80B
:10582000041C002BC1D04FF0FF34C3F1200324FA35
:1058300003F3194040F8041CB7E7104672468E4641
:1058400019462929019E009B03D0042005B0BDE81C
:10585000F08F0134346083E7DCF80040CAF10801BE
:105860008900664688462546C1F12009716801FA1B
:1058700009F42C4321FA08F5346046F8045FB74276
:10588000F4D874E7CCE000082DE9F04F01F10B05E6
:10589000162D064683B024D8102900F2AD8000F002
:1058A000BDFA102518234FF0020CB84F3B445C683A
:1058B000A3F10802944200F01D8130466368E2685B
:1058C000A16823F00303CA60234491605A68083436
:1058D00042F001025A6000F0A7FA204603B0BDE88A
:1058E000F08F35F0070500F18780A94200F284802F
:1058F00000F094FAB5F5FC7FC0F06F816B0A7FD0A1
:10590000042B00F21E81AB0903F1390C03F1380EB0
:105910004FEACC009D4F384444680838A04207D174
:105920000DE0002AE16880F2DF80884207D00C4653
:10593000636823F003035A1B0F2AF2DDF446DFF8F5
:1059400050823C69444500F0BC80636823F0030941
:10595000A9EB05030F2B00F34581002BC7E9048851
:1059600080F22F81B9F5007FD7F804E080F0C9807C
:1059700001234FEAD9014FEA5919194403FA09F3EF
:1059800057F831204EEA030E07EBC103083BA26033
:10599000E360C7F804E047F83140D46001204FEAE3
:1059A000AC039840704532D810EA0E0F07D12CF0A6
:1059B000030C400010EA0E0F0CF1040CF9D007EBB9
:1059C000CC0AD646E146DEF80C300BE059681C469E
:1059D00021F003014A1B0F2ADB6800F3BF80002A75
:1059E00080F2E2809E45F1D109F1010919F0030F1F
:1059F0000EF1080EE7D11FE10C23336000246CE7A1
:105A00004FF400704FF0400C4FF03F0E82E7BC683F
:105A1000636823F00309A94503D3A9EB05030F2B02
:105A200052DC5C4B08201B6803F1100804EB0903EF
:105A3000009305F081FF584A83461368A844013358
:105A400005D008F1FF388044434203EA0808414684
:105A5000304605F04BFFB0F1FF3F82464E4A00F062
:105A6000DC8004EB0903834200F2D5804B4B0BF141
:105A7000FF31186840448446186040F0FB801AEA01
:105A8000010F40F0F780D7F808A0C84448F00102A1
:105A9000CAF804205446424B1968814238BF186046
:105AA000404B1968814238BF186022F00308A845AE
:105AB000A8EB050301D30F2B06DC304600F0B4F948
:105AC0009CE7D7F804E069E7621943F0010345F069
:105AD000010565603046BA600834536000F0A4F9EF
